:020000040800F2
:10000000000002208DDA0008DDDA0008DDDA0008E1
:10001000DDDA0008DDDA0008DDDA000800000000A3
:10002000000000000000000000000000DDDA000811
:10003000DDDA000800000000DDDA0008E7BD000896
:10004000DDDA0008DDDA0008DDDA0008DDDA0008B4
:10005000DDDA0008DDDA0008DDBE0008E3BE0008D6
:10006000E9BE0008EFBE0008F5BE0008DDDA0008B2
:10007000DDDA0008DDDA0008DDDA0008DDDA000884
:10008000DDDA0008DDDA0008DDDA0008DDDA000874
:10009000DDDA0008DDDA0008DDDA0008FBBE000862
:1000A000FDB5000815B5000811B6000839B50008FF
:1000B0004DB5000861B5000875B500086157000826
:1000C0006D5700087957000885570008DDDA0008E9
:1000D000DDDA00083DCE000855CE000871CE0008DC
:1000E00023BF0008DDDA0008DDDA000825B60008C5
:1000F000C5B5000839B60008E9B50008DDDA000822
:10010000DDDA0008DDDA000889B50008DDDA00086C
:100110008DCE0008A5CE00089DB50008B1B5000839
:10012000DDDA0008DDDA0008DDDA0008DDDA0008D3
:10013000DDDA0008DDDA0008DDDA0008DDDA0008C3
:10014000DDDA0008DDDA0008DDDA0008DDDA0008B3
:10015000DDDA0008DDDA0008DDDA0008BDCE0008CF
:10016000915700089D570008DDDA0008DDDA000825
:10017000DDDA0008DDDA0008DDDA00080000000042
:08018000DDDA0008DDDA0008F9
:1001900010F8012B11F8013B012A28BF9A42F7D031
:1001A000D01A7047034613F8012B002AFBD1181A06
:1001B000013870470000000000000000000000004F
:1001C00001F0FF01102A2BDB10F0070F08D010F808
:1001D000013B013A8B422DD010F0070F42B3F6D10C
:1001E000F0B441EA012141EA014122F007047FF025
:1001F00000070023F0E80256083C85EA010586EA7C
:10020000010685FA47F5A3FA87F586FA47F6A5FAB7
:1002100087F68EB9EED1F0BC01F0FF0102F00702C3
:1002200032B110F8013B013A83EA010313B1F8D16E
:100230000020704701387047002D06BF354603384F
:10024000073815F0010F07D1013015F4807F02BF88
:10025000013015F4C03F0130F0BC0138704700BFD9
:1002600081F0004102E000BF83F0004330B54FEA67
:1002700041044FEA430594EA050F08BF90EA020FD4
:100280001FBF54EA000C55EA020C7FEA645C7FEA67
:10029000655C00F0E2804FEA5454D4EB5555B8BF8A
:1002A0006D420CDD2C4480EA020281EA030382EAFB
:1002B000000083EA010180EA020281EA0303362D8D
:1002C00088BF30BD11F0004F4FEA01314FF4801C60
:1002D0004CEA113102D0404261EB410113F0004F72
:1002E0004FEA03334CEA133302D0524263EB430329
:1002F00094EA050F00F0A780A4F10104D5F1200EC7
:100300000DDB02FA0EFC22FA05F2801841F1000121
:1003100003FA0EF2801843FA05F359410EE0A5F1F5
:1003200020050EF1200E012A03FA0EFC28BF4CF026
:10033000020C43FA05F3C01851EBE37101F00045DC
:1003400007D54FF0000EDCF1000C7EEB00006EEBE9
:100350000101B1F5801F1BD3B1F5001F0CD3490873
:100360005FEA30004FEA3C0C04F101044FEA4452CA
:1003700012F5800F80F09A80BCF1004F08BF5FEA51
:10038000500C50F1000041EB045141EA050130BD31
:100390005FEA4C0C404141EB0101013C28BFB1F543
:1003A000801FE9D291F0000F04BF01460020B1FA8E
:1003B00081F308BF2033A3F10B03B3F120020CDA61
:1003C0000C3208DD02F1140CC2F10C0201FA0CF03F
:1003D00021FA02F10CE002F11402D8BFC2F1200CA4
:1003E00001FA02F120FA0CFCDCBF41EA0C0190405A
:1003F000E41AA2BF01EB0451294330BD6FEA0404A3
:100400001F3C1CDA0C340EDC04F11404C4F120028D
:1004100020FA04F001FA02F340EA030021FA04F39F
:1004200045EA030130BDC4F10C04C4F1200220FAF6
:1004300002F001FA04F340EA0300294630BD21FA34
:1004400004F0294630BD94F0000F83F4801306BFFA
:1004500081F480110134013D4EE77FEA645C18BFEE
:100460007FEA655C29D094EA050F08BF90EA020F85
:1004700005D054EA000C04BF1946104630BD91EA7D
:10048000030F1EBF0021002030BD5FEA545C05D180
:100490004000494128BF41F0004130BD14F58004BF
:1004A0003CBF01F5801130BD01F0004545F0FE4133
:1004B00041F470014FF0000030BD7FEA645C1ABF68
:1004C000194610467FEA655C1CBF0B46024650EA9F
:1004D000013406BF52EA033591EA030F41F40021CB
:1004E00030BD00BF90F0000F04BF0021704730B551
:1004F0004FF4806404F132044FF000054FF0000126
:1005000050E700BF90F0000F04BF0021704730B5E6
:100510004FF4806404F1320410F0004548BF4042BB
:100520004FF000013EE700BF42004FEAE2014FEA10
:1005300031014FEA02701FBF12F07F4393F07F4FEB
:1005400081F06051704732F07F4208BF704793F0EE
:100550007F4F04BF41F40021704730B54FF4607401
:1005600001F0004521F000411CE700BF50EA010204
:1005700008BF704730B54FF000050AE050EA0102AD
:1005800008BF704730B511F0004502D5404261EB1D
:1005900041014FF4806404F132045FEA915C3FF45E
:1005A000D8AE4FF003025FEADC0C18BF03325FEAFB
:1005B000DC0C18BF033202EBDC02C2F1200300FAAC
:1005C00003FC20FA02F001FA03FE40EA0E0021FAD1
:1005D00002F11444BDE600BF70B54FF0FF0C4CF4BF
:1005E000E06C1CEA11541DBF1CEA135594EA0C0F71
:1005F00095EA0C0F00F0DEF82C4481EA030621EAAC
:100600004C5123EA4C5350EA013518BF52EA0335E6
:1006100041F4801143F4801338D0A0FB02CE4FF098
:100620000005E1FB02E506F00042E0FB03E54FF0C8
:100630000006E1FB03569CF0000F18BF4EF0010EC0
:10064000A4F1FF04B6F5007F64F5407404D25FEABC
:100650004E0E6D4146EB060642EAC62141EA55516F
:100660004FEAC52040EA5E504FEACE2EB4F1FD0CB1
:1006700088BFBCF5E06F1ED8BEF1004F08BF5FEA2F
:10068000500E50F1000041EB045170BD06F00046E1
:1006900046EA010140EA020081EA0301B4EB5C048E
:1006A000C2BFD4EB0C0541EA045170BD41F4801186
:1006B0004FF0000E013C00F3AB8014F1360FDEBFAB
:1006C000002001F0004170BDC4F10004203C35DA87
:1006D0000C341BDC04F11404C4F1200500FA05F30A
:1006E00020FA04F001FA05F240EA020001F00042AB
:1006F00021F0004110EBD37021FA04F642EB060121
:100700005EEA430E08BF20EAD37070BDC4F10C044A
:10071000C4F1200500FA04F320FA05F001FA04F20E
:1007200040EA020001F0004110EBD37041F10001FA
:100730005EEA430E08BF20EAD37070BDC4F1200505
:1007400000FA05F24EEA020E20FA04F301FA05F26D
:1007500043EA020321FA04F001F0004121FA04F215
:1007600020EA020000EBD3705EEA430E08BF20EAE5
:10077000D37070BD94F0000F0FD101F0004640001F
:1007800041EB010111F4801F08BF013CF7D041EAA1
:10079000060195F0000F18BF704703F000465200A5
:1007A00043EB030313F4801F08BF013DF7D043EA76
:1007B0000603704794EA0C0F0CEA135518BF95EA2C
:1007C0000C0F0CD050EA410618BF52EA4306D1D1B3
:1007D00081EA030101F000414FF0000070BD50EAD2
:1007E000410606BF1046194652EA430619D094EA5C
:1007F0000C0F02D150EA013613D195EA0C0F05D146
:1008000052EA03361CBF104619460AD181EA030199
:1008100001F0004141F0FE4141F470014FF0000051
:1008200070BD41F0FE4141F4780170BD70B54FF0EC
:10083000FF0C4CF4E06C1CEA11541DBF1CEA13556C
:1008400094EA0C0F95EA0C0F00F0A7F8A4EB05044E
:1008500081EA030E52EA03354FEA013100F0888045
:100860004FEA03334FF0805545EA131343EA12630E
:100870004FEA022245EA111545EA10654FEA0026C3
:100880000EF000419D4208BF964244F1FD0404F57C
:10089000407402D25B084FEA3202B61A65EB0305D8
:1008A0005B084FEA32024FF480104FF4002CB6EB95
:1008B000020E75EB030E22BFB61A754640EA0C0015
:1008C0005B084FEA3202B6EB020E75EB030E22BF55
:1008D000B61A754640EA5C005B084FEA3202B6EB96
:1008E000020E75EB030E22BFB61A754640EA9C0055
:1008F0005B084FEA3202B6EB020E75EB030E22BF25
:10090000B61A754640EADC0055EA060E18D04FEAE2
:10091000051545EA16754FEA06164FEAC30343EA82
:1009200052734FEAC2025FEA1C1CC0D111F4801F4F
:100930000BD141EA00014FF000004FF0004CB6E748
:1009400011F4801F04BF01430020B4F1FD0C88BFE7
:10095000BCF5E06F3FF6AFAEB5EB030C04BFB6EBF2
:10096000020C5FEA500C50F1000041EB045170BDE5
:100970000EF0004E4EEA113114EB5C04C2BFD4EB12
:100980000C0541EA045170BD41F480114FF0000E96
:10099000013C90E645EA060E8DE60CEA135594EA12
:1009A0000C0F08BF95EA0C0F3FF43BAF94EA0C0F15
:1009B0000AD150EA01347FF434AF95EA0C0F7FF48A
:1009C00025AF104619462CE795EA0C0F06D152EADE
:1009D00003353FF4FDAE1046194622E750EA4106C2
:1009E00018BF52EA43067FF4C5AE50EA41047FF4D3
:1009F0000DAF52EA43057FF4EBAE12E74FF0FF3C38
:100A000006E000BF4FF0010C02E000BF4FF0010C08
:100A10004DF804CD4FEA410C7FEA6C5C4FEA430C81
:100A200018BF7FEA6C5C1BD001B050EA410C0CBFD0
:100A300052EA430C91EA030F02BF90EA020F002032
:100A4000704710F1000F91EA030F58BF994208BF99
:100A500090422CBFD8176FEAE37040F00100704756
:100A60004FEA410C7FEA6C5C02D150EA013C07D1AD
:100A70004FEA430C7FEA6C5CD6D152EA033CD3D0F8
:100A80005DF8040B704700BF8446104662468C46F2
:100A90001946634600E000BF01B5FFF7B7FF002825
:100AA00048BF10F1000F01BD4DF808EDFFF7F4FF4E
:100AB0000CBF012000205DF808FB00BF4DF808EDD9
:100AC000FFF7EAFF34BF012000205DF808FB00BFFC
:100AD0004DF808EDFFF7E0FF94BF012000205DF81E
:100AE00008FB00BF4DF808EDFFF7CEFF94BF0120D3
:100AF00000205DF808FB00BF4DF808EDFFF7C4FFCC
:100B000034BF012000205DF808FB00BF4FEA410C14
:100B10007FEA6C5C02D150EA013C0AD14FEA430CF7
:100B20007FEA6C5C02D152EA033C02D14FF0000034
:100B300070474FF0010070474A0011D212F50012C1
:100B400011D20DD56FF47873B3EB62520ED44FEA25
:100B5000C12343F0004343EA505323FA02F07047A5
:100B60004FF00000704750EA013002D14FF0FF30E3
:100B700070474FF0000070474FEA4102B2F1E04386
:100B800024BFB3F5001CDCF1FE5C0DD901F0004C74
:100B90004FEAC0024CEA5070B2F1004F40EB8300C4
:100BA00008BF20F00100704711F0804F21D113F1F0
:100BB0003872BCBF01F00040704741F480114FEA29
:100BC0005252C2F11802C2F1200C10FA0CF320FAB2
:100BD00002F018BF40F001004FEAC1234FEAD323CF
:100BE00003FA0CFC40EA0C0023FA02F34FEA430339
:100BF000CCE77FEA625307D150EA01331EBF4FF0C2
:100C0000FE4040F44000704701F0004040F0FE40DC
:100C100040F40000704700BF80F0004002E000BFD9
:100C200081F0004142001FBF5FEA410392EA030FD7
:100C30007FEA226C7FEA236C6AD04FEA1262D2EB21
:100C40001363C1BFD218414048404140B8BF5B4226
:100C5000192B88BF704710F0004F40F4000020F0BF
:100C60007F4018BF404211F0004F41F4000121F0D5
:100C70007F4118BF494292EA030F3FD0A2F101021F
:100C800041FA03FC10EB0C00C3F1200301FA03F15D
:100C900000F0004302D5494260EB4000B0F5000F80
:100CA00013D3B0F1807F06D340084FEA310102F13F
:100CB0000102FE2A51D2B1F1004F40EBC25008BFF1
:100CC00020F0010040EA03007047490040EB0000BB
:100CD000013A28BFB0F5000FEDD2B0FA80FCACF1BC
:100CE000080CB2EB0C0200FA0CF0AABF00EBC250E9
:100CF00052421843BCBFD0401843704792F0000FD7
:100D000081F4000106BF80F400000132013BB5E729
:100D10004FEA41037FEA226C18BF7FEA236C21D09F
:100D200092EA030F04D092F0000F08BF0846704704
:100D300090EA010F1CBF0020704712F07F4F04D1D2
:100D4000400028BF40F00040704712F100723CBFE5
:100D500000F50000704700F0004343F0FE4040F40F
:100D6000000070477FEA226216BF08467FEA2363CD
:100D70000146420206BF5FEA412390EA010F40F4B8
:100D8000800070474FF0000304E000BF10F0004304
:100D900048BF40425FEA000C08BF704743F09643EB
:100DA00001464FF000001CE050EA010208BF704706
:100DB0004FF000030AE000BF50EA010208BF70478D
:100DC00011F0004302D5404261EB41015FEA010CA2
:100DD00002BF84460146002043F0B64308BFA3F19A
:100DE0008053A3F50003BCFA8CF2083AA3EBC2537C
:100DF00010DB01FA02FC634400FA02FCC2F120029B
:100E0000BCF1004F20FA02F243EB020008BF20F0D1
:100E10000100704702F1200201FA02FCC2F1200237
:100E200050EA4C0021FA02F243EB020008BF20EA2C
:100E3000DC7070477BB972B90029BEBF00204FF04B
:100E4000004106E008BF00281CBF6FF000414FF0D2
:100E5000FF3000F057B8ADF1080C6DE904CE002961
:100E600009DB002B1ADB11F041F8DDF804E0DDE9C5
:100E7000022304B07047404261EB4101002B1BDBB1
:100E800011F034F8DDF804E0DDE9022304B040425B
:100E900061EB4101524263EB43037047524263EB03
:100EA000430311F023F8DDF804E0DDE9022304B088
:100EB000404261EB41017047524263EB430311F042
:100EC00015F8DDF804E0DDE9022304B0524263EBDB
:100ED0004303704753B94AB9002908BF00281CBF13
:100EE0004FF0FF314FF0FF3000F00CB8ADF1080CBF
:100EF0006DE904CE10F0FAFFDDF804E0DDE902232D
:100F000004B07047704700BF10B5054C237833B963
:100F1000044B13B10448AFF300800123237010BDCC
:100F2000F802002000000000EC21010808B5034B86
:100F30001BB103490348AFF3008008BD0000000067
:100F4000FC020020EC210108002070477047F8B532
:100F500005460C468F180026BC4201D13046F8BD2C
:100F60002B6814F8011B1B68284698470644F3E7D2
:100F7000014B01221A7070477E040020024A0123AF
:100F80001370024A137070477D040020C055002082
:100F900038B504460D4603F0BDFA0B490CF00CFAC7
:100FA000204603F0B7FA29460CF00AFA204603F06F
:100FB000B1FA06490CF014FA204603F0ABFABDE88A
:100FC000384003490CF00CBA342201084B220108C6
:100FD0004D22010810B5044603F09CFA0E490CF0AE
:100FE000EBF9204603F096FA0C490CF0E5F920469F
:100FF00003F090FA0A490CF0DFF9204603F08AFA70
:1010000008490CF0D9F9204603F084FABDE81040F5
:1010100005490CF0E5B900BF7122010877220108EB
:101020007B220108822201088722010808B5054BAE
:1010300001221A7003F06EFABDE8084002490CF074
:10104000CFB900BFE05500209422010838B5074B06
:1010500000221A70064B00240025C3E9004503F066
:1010600059FABDE8384003490CF0BAB9E055002000
:10107000D8550020C322010808B5054B00221A707C
:1010800003F048FABDE8084002490CF0A9B900BFD6
:1010900075040020F322010808B5054B01221A70DF
:1010A00003F038FABDE8084002490CF099B900BFD6
:1010B000750400201123010808B5054B01221A70A0
:1010C00003F028FABDE8084002490CF089B900BFD6
:1010D000020000202C23010808B5054B01221A70DC
:1010E00003F018FABDE8084002490CF079B900BFD6
:1010F000D05500204123010808B5054B01221A7084
:1011000003F008FABDE8084002490CF069B900BFD5
:10111000010000209423010808B5054B01221A7034
:1011200003F0F8F9BDE8084002490CF059B900BFD6
:1011300074040020B623010810B5044603F0EAF950
:101140003E490CF039F9204603F0E4F93C490CF033
:1011500033F9204603F0DEF93A490CF02DF9204628
:1011600003F0D8F938490CF027F9204603F0D2F9FA
:1011700036490CF035F9204603F0CCF934490CF02F
:101180002FF9204603F0C6F932490CF029F9204620
:1011900003F0C0F930490CF023F9204603F0BAF906
:1011A0002E490CF01DF9204603F0B4F92C490CF03F
:1011B00017F9204603F0AEF92A490CF011F9204640
:1011C00003F0A8F928490CF00BF9204603F0A2F926
:1011D00026490CF005F9204603F09CF924490CF04F
:1011E000FFF8204603F096F922490CF0F9F8204662
:1011F00003F090F920490CF0F3F8204603F08AF947
:101200001E490CF0EDF8204603F084F91C490CF05F
:10121000E7F8204603F07EF91A490CF0E1F8204681
:1012200003F078F918490CF0DBF8204603F072F966
:10123000BDE8104015490CF0D3B800BF7122010879
:10124000772201087B2201088222010887220108F7
:10125000E2230108F8230108282401086124010879
:101260007B24010891240108EA24010820250108B3
:1012700072250108A9250108F72501085226010851
:10128000AD260108C92601082A27010859270108A7
:1012900010B52DED028B044603F0C8F990B9204635
:1012A00003F038F928490CF087F8204603F032F9AA
:1012B000BDEC028B254BBDE8104093ED000A0221E6
:1012C0000CF02DBA0CF0F8FD51EC100BFFF754FCAC
:1012D00008EE100AF7EE007AB4EEE78AF1EE10FAA3
:1012E00010DBDFED1B7AB4EEE78AF1EE10FA17D9C6
:1012F000204603F00FF9BDEC028B1649BDE8104003
:101300000CF06EB8FFEE007AB4EEE78AF1EE10FA58
:10131000EED8DFED117AB4EEE78AF1EE10FAE7DBF2
:10132000204603F0F7F80D490CF046F8204603F08C
:10133000F1F8B0EE480A02210CF0F1F9034B83ED0D
:10134000008ABDEC028B10BD5B2701082C00002039
:1013500000803B45B027010800803BC5912701086C
:1013600010B52DED028B044603F060F990B92046CC
:1013700003F0D0F828490CF01FF8204603F0CAF813
:10138000BDEC028B254BBDE8104093ED000A022115
:101390000CF0C5B90CF090FD51EC100BFFF7ECFB15
:1013A00008EE100AF7EE007AB4EEE78AF1EE10FAD2
:1013B00010DBDFED1B7AB4EEE78AF1EE10FA17D9F5
:1013C000204603F0A7F8BDEC028B1649BDE810409B
:1013D0000CF006B8FFEE007AB4EEE78AF1EE10FAF0
:1013E000EED8DFED117AB4EEE78AF1EE10FAE7DB22
:1013F000204603F08FF80D490BF0DEFF204603F086
:1014000089F8B0EE480A02210CF089F9034B83ED0C
:10141000008ABDEC028B10BDE527010828000020E2
:1014200000803B453A28010800803BC51B28010885
:1014300038B5044603F0FAF880B9204603F06AF89C
:1014400015490BF0B9FF204603F064F8134B0A224C
:1014500093F90010BDE838400CF021B80CF02FFDD6
:1014600000F117032E2B054620460ED803F052F844
:101470000B490BF0A1FF204603F04CF80A22294645
:101480000CF00DF8054B1D7038BD03F043F8BDE8B6
:10149000384004490BF0A4BF6F2801083500002034
:1014A000AE280108D6280108084B10B5198801316B
:1014B00089B20446022019800CF06EFB204603F02E
:1014C00029F8BDE8104002490BF08ABFF65300200E
:1014D00014290108084B10B519880A3189B204464D
:1014E000022019800CF058FB204603F013F8BDE8E9
:1014F000104002490BF074BFF65300202829010860
:10150000084B10B51988013989B2044602201980A8
:101510000CF042FB204602F0FDFFBDE810400249FE
:101520000BF05EBFF65300203E290108084B10B5B2
:1015300019880A3989B20446022019800CF02CFB64
:10154000204602F0E7FFBDE8104002490BF048BF1B
:10155000F65300205229010838B5044603F066F816
:1015600070B9204602F0D6FF15490BF039FF154B34
:1015700048F601311980BDE8384002200CF00CBB60
:101580000CF09DFC4FF6FE73421E9A420546204623
:101590000FD802F0BFFF0C490BF00EFF204602F0FF
:1015A000B9FF29460A220BF084FF064B29461D800D
:1015B000E1E702F0AFFFBDE8384004490BF010BF8F
:1015C00068290108F65300208E290108A129010885
:1015D00038B5044603F02AF878B9204602F09AFF9D
:1015E00014490BF0E9FE204602F094FF124B0A2248
:1015F0001978BDE838400BF075BF0CF060FC05466B
:10160000092D20460ED802F085FF0C490BF0D4FEC0
:10161000204602F07FFF0A2229460BF040FF064BCE
:101620001D7038BD02F076FFBDE8384004490BF06C
:10163000D7BE00BFEB290108E1550020252A01088B
:101640004E2A010838B502F065FF0F490F4D0BF027
:10165000C7FE0024204615F8011B013402F002FFEA
:10166000062CF7D10A4D29882046090A02F0FAFE15
:101670002978072002F0F6FE02F006FF054A012352
:101680001370054A137038BD892A01083A000020FA
:10169000F6530020B85500200200002038B502F0B3
:1016A00039FF0C490C4D0BF09BFE00242A88A3B295
:1016B0009A4208D802F0E8FE084B00221A70084B44
:1016C00001221A7038BDE1B2A0B202F0CBFE0134A3
:1016D000ECE700BFD32A010838000020B8550020ED
:1016E000020000202DE9F0411A4E1B4F0123054650
:1016F000337002F0BDFE0024A046204602F0ACFE8E
:1017000017F8013B0134984218BF86F80080062C78
:10171000F3D133782846ABB102F0FCFE0F490BF051
:101720005FFE204602F098FE0446072002F094FE79
:101730000B4B00EB042189B2BDE8F0410220198077
:101740000CF02ABA02F0E6FEBDE8F04105490BF0C4
:1017500047BE00BFB85500203A0000200D2B0108FD
:10176000F65300202F2B0108012A02D1016000202E
:101770007047022A05D0032AF9D0002AF7D1026067
:10178000F5E70B680360F2E703681847836810B554
:10179000044613B1032201469847204610BD0000BD
:1017A000DFF8FCC1734B9CF80000734A2DE9F0434D
:1017B00000F0FF0110B11968515C49B26F4F704ED3
:1017C00038781C686F4D40B210553878348844FA28
:1017D00080F000B2308038782C8844FA80F000B273
:1017E000694C28803878B4F800E04EFA80F000B2F6
:1017F0002080664897F800E0B0F8008048FA8EFE36
:101800000FFA8EFEA0F800E097F800E0604FB7F8FE
:10181000008048FA8EFE0FFA8EFEA7F800E0DFF88F
:1018200084E19EF80080B8F1000F18D0D3F8008052
:10183000B8F1090FB6F80080D3F8009096BF09F50B
:101840009C49A9F10A0909F1160912F809904FFA01
:1018500089F9A8EB09080FFA88F8A6F800804D4E20
:1018600096F80080B8F1000F18D0D3F80080B8F1D6
:10187000630FB5F80080D3F8009096BF09F59B4937
:10188000A9F1640909F13C0912F809904FFA89F9A4
:10189000A8EB09080FFA88F8A5F800803E4D95F8E6
:1018A0000080B8F1000F18D0D3F80080B8F57A7F27
:1018B000B4F80080D3F8009036BF09F59449A9F533
:1018C0007A7909F1380912F809904FFA89F9A8EBE9
:1018D00009080FFA88F8A4F80080304C94F80080CA
:1018E000B8F1000F18D0D3F8009042F20F78C1453C
:1018F000B0F80080D3F800908BBFA9F51C5909F50A
:101900001C59A9F1100909F1100912F8092052B265
:10191000A8EB020212B202809CF800201AB13A88A9
:10192000521A12B23A801A6801321A601A680A2AE8
:1019300004BF01228EF800201A68642A04BF012225
:1019400032701A68B2F57A7F04BF01222A701968D2
:1019500042F21072914204BF01222270196844F6CB
:101960002062914201BF01228CF8002000221A60FF
:10197000BDE8F083D0040020DE040020FE520020E9
:10198000DC040020DA040020D8040020D604002063
:10199000D4040020CB040020CA040020C904002085
:1019A000C8040020CC04002008B5394B1B7883B153
:1019B000384B188800B2FEF7A5FD374B0022FEF722
:1019C00035FF2DA3D3E90023FEF750FC334BC3E9C9
:1019D0000001334B1B7883B1324B188800B2FEF7FD
:1019E00091FD314B0022FEF721FF23A3D3E9002311
:1019F000FEF73CFC2D4BC3E900012D4B1B7883B156
:101A00002C4B188800B2FEF77DFD2B4B0022FEF711
:101A10000DFF19A3D3E90023FEF728FC274BC3E9E8
:101A20000001274B1B788BB1264B188800B2FEF7BC
:101A300069FD13A3D3E90023FEF7F8FE0EA3D3E953
:101A40000023FEF713FC204BC3E900011F4B1B785A
:101A50008BB11F4B188800B2FEF754FD0AA3D3E9DF
:101A60000023FEF7E3FE04A3D3E90023FEF7FEFB09
:101A7000184BC3E9000108BD00000000D01263410B
:101A8000000000000088C340000000000088D34030
:101A9000CC040020DC04002000002440C00400200E
:101AA000CB040020DA04002000005940B8040020D4
:101AB000CA040020D804002000408F40B004002059
:101AC000C9040020D6040020A8040020C804002077
:101AD000D4040020A0040020194B1A4A0020002141
:101AE000C3E9000100231360174A1360174A1380EB
:101AF000174A1380174A1380174A1380174A138016
:101B0000174A1370174A1370174A1370174A137045
:101B1000174A1370174A00200021C2E90001164A33
:101B2000C2E90001154AC2E90001154AC2E90001F3
:101B3000144AC2E90001144A1360144A1370704732
:101B40008804002098040020D0040020DC04002039
:101B5000DA040020D8040020D6040020D404002099
:101B6000CC040020CB040020CA040020C9040020BB
:101B7000C8040020C0040020B8040020B0040020E5
:101B8000A8040020A0040020780400200200002007
:101B90002DE9F84F2B200CF033F9DFF8C4A1B0FA8F
:101BA00080F149092B200CF0F3F89AF8003083F00B
:101BB00001038AF80030584B1A786AB14FF080421E
:101BC000564DD26B2A6000221A70554B1B7803F0D9
:101BD000FF047BB3FFF780FF524B1968012903D044
:101BE000022900F09180002103200CF0D1F89AF82E
:101BF0000030EBB14C4A13780133DBB23B2B13704E
:101C000016D900211170494A13780133DBB23B2BFE
:101C100013700DD91170464A13780133DBB2172BBC
:101C2000137005D91170434A138801339BB2138096
:101C3000BDE8F88FDFF82C912A68D9F800309A4275
:101C40005BD03D4B3D4A3E49012018701368034468
:101C500013602A68D9F800309A420BD2D1E90023E8
:101C6000161843F10007C1E90067364B1A78002ABD
:101C700047D01C70D1E900782968334CDFF8E88040
:101C8000002672183B46C4E90023D4E90023D8E9B2
:101C90000001904271EB03032FD2D4E900BCD8E9D4
:101CA0000001BBEB00026CEB01032849914276EB8B
:101CB00003031ED2D4E900BCD8E90001BBEB00024B
:101CC0006CEB01032249914276EB030311D3D4E973
:101CD0000067D8E90001321A67EB01031D49C1E929
:101CE0000023D1E900231C4B803A52B21A70FFF74F
:101CF00057FDD4E90023C8E900232B68C9F8003058
:101D00006AE7164B1870B5E703200CF079F8B0FAC3
:101D100080F1490968E700BF7D0400209C04002091
:101D20000200002024000020025300200353002062
:101D30000453002000530020F453002078040020B6
:101D4000800400207E040020900400208C949800E1
:101D50007398980008000020FE5200207C040020A8
:101D6000FF5200209804002088040020C2B24A2AB2
:101D7000F0B5404D404C44DC00F4E0633F4850F87F
:101D80002220134313F008024ED1C3F30310082896
:101D90006BD803F00F0255F8207054F8222092FA05
:101DA000A2F6B6FA86F6D7F820C092FAA2F2B600EA
:101DB0004FF00F0EB2FA82F20EFA06F692002CEAFB
:101DC000060601FA02F232433A6203F00F0355F8B5
:101DD000201054F8233093FAA3F2B2FA82F2086882
:101DE00093FAA3F35200032404FA02F2B3FA83F342
:101DF00020EA02005B00022202FA03F303430B60B5
:101E0000F0BD00F0C003C02B0CD1CF2A0ADC1C4B64
:101E100000F03F0253F82260184A00F4E06352F8E1
:101E20002620AEE74FF0FF33C3F3031008281ED877
:101E300003F00F0255F8207054F82220D7F824C080
:101E4000120A92FAA2F6B6FA86F6B6004FF00F0E14
:101E500092FAA2F2B2FA82F20EFA06F692002CEA96
:101E60000606914031437962AFE7136AFFDE002333
:101E70005B6AFBE76C0000206C3A0108C84301086C
:101E80008843010838B5264B0F24A3F108052448E0
:101E900005F09EF9002323492348A5F84C300BF0A8
:101EA0008BFA224920480BF087FA21491E480BF093
:101EB00083FA4FF400731F491B48A5F84C300BF010
:101EC0007BFA4FF440731C491748A5F84C300BF0CF
:101ED00073FA40F205430A2221461348A5F84C3014
:101EE0000BF0DBFA154910480BF066FA14480BF0BA
:101EF0006FFA144912480BF05FFA0A222146104883
:101F00000BF0CBFA10490E480BF06AFA4FF47A70D6
:101F10000BF0B4FF013CBAD10C4B1C7038BD00BFB4
:101F20000054002071220108F85300207722010894
:101F30007B2201086F2B01087F2B01086F2201080B
:101F4000E47800208B2B01089D2B01080000002065
:101F50002DE9F84F904D9148914CDFF8A49202235F
:101F60002B600BF035FA8F498C480BF025FA8B4823
:101F70000BF02EFA8C4805F02BF900238B49A4F8BE
:101F80004C3020460BF018FA894920460BF014FA21
:101F9000884920460BF010FA4FF400738149A4F8E9
:101FA0004C3020460BF008FA4FF440738249A4F8F5
:101FB0004C3020460BF000FA99F80030002B00F06E
:101FC000DA807E4975480BF00BFA7D4973480BF0B7
:101FD000F3F90A220F2171480BF05FFA79496F4833
:101FE0000BF0FEF94FF4F04102200BF0D5FD0E246A
:101FF0000A22214669480BF050FA734967480BF0F2
:10200000DBF94FF47A700BF039FF013CF0D26348F2
:10201000DFF8F0810BF0DCF96C4960480BF0CCF98B
:10202000FFF7C2FCD8E90067012147EC106B5B4861
:102030000BF03AFC664959480BF0D2F957480BF0BF
:10204000C7F999F80030002B00F09A806149534895
:102050000BF0C6F9604951480BF0C2F90A220F2172
:102060004E480BF01AFA57494C480BF0B9F94FF4A7
:10207000484102200BF090FD0E240A2221464748D9
:102080000BF00BFA504945480BF096F94FF47A7073
:102090000BF0F4FE013CF0D24048504C0BF098F9A4
:1020A0004F493E480BF088F9FFF77EFCD8E900ABBA
:1020B00001214BEC10AB39480BF0F6FB4449374893
:1020C0000BF08EF935480BF083F931A3D3E90023E7
:1020D00030463946FEF7C8F83246804689463B46C8
:1020E00050465946FEF7C0F83E4B0022FEF79EFBD5
:1020F00002460B4640464946FEF798FB0B46024611
:1021000039490020FEF7B0F8FEF716FD3749208068
:1021100022480BF051F90A22218820480BF0BFF920
:10212000218802200BF038FD1C480BF051F9304992
:102130001A480BF041F919480BF04AF91A4805F012
:1021400047F8174B194918460024A3F84C400BF0E8
:1021500033F9174912480BF02FF9164910480BF0C4
:102160002BF9244A2C6001231370234A1470234A4C
:102170001370BDE8F88F4FF47A700BF07FFE1BE709
:102180004FF47A700BF07AFE5BE700BFAFF300808C
:1021900000000000D012634124000020E4780020F9
:1021A000F8530020A92B01080054002071220108D7
:1021B000772201087B2201087F2B0108B82B010838
:1021C000D82B01086F22010818280108F42B0108F8
:1021D0001B2C01081F2C01083F2C0108F65300207E
:1021E0005B2C01080000D4400000DE40822C010876
:1021F000932C01080200002001000020D05500208F
:10220000CC040020C004002030B5D1492DED028B54
:10221000D1E9002395B0013243F100030A250446B9
:10222000C1E9002300950BF0D8F9CA4920460BF00C
:10223000C7F8C94B2A46197820460BF051F9C7490F
:1022400020460BF0B9F8C64B2A46197820460BF009
:1022500047F9C24920460BF0AFF8C24B2A4619880D
:10226000C14D20460BF019F9C04920460BF0A4F8E7
:102270002B78092B03D8BE4920460BF09DF829780E
:10228000BC4D0A2220460BF02BF9BB4920460BF02F
:1022900093F82B78092B03D8B54920460BF08CF81E
:1022A0002978B64D0A2220460BF01AF9B249204689
:1022B0000BF082F82B78092B03D8AD4920460BF0A0
:1022C0007BF80A2229789FEDAE8A20460BF008F9A8
:1022D000A04920460BF074F8AA4920460BF070F88C
:1022E000A24920460BF068F8A74920460BF068F891
:1022F000984920460BF064F80A25A44B0095D3E9D1
:10230000002320460BF069F9924920460BF058F85B
:102310009F4B0095D3E9002320460BF05EF98D49D1
:1023200020460BF04DF89B4B012193ED000B20460E
:102330000BF0BAFA874920460BF042F8964B02217F
:1023400093ED000B20460BF0AFFA824920460BF0CC
:1023500037F8924B032193ED000B20460BF0A4FAC3
:102360007C4920460BF02CF88D4B042193ED000B9B
:1023700020460BF099FA774920460BF021F8894B5B
:10238000052193ED000B20460BF08EFA7149204693
:102390000BF016F8844B2A46197820460BF0A0F86B
:1023A0006C4920460BF00CF8804BDFED817A93ED01
:1023B000000AB8EE400A022180EE270A20460BF000
:1023C000A9F9644920460AF0FBFF7A4B2A4619888E
:1023D00020460BF062F85F4920460AF0F1FF764B89
:1023E000B3F9003007EE903AF8EEE77A67EE887AB4
:1023F00017EE900AFEF798F851A3D3E90023FEF7F1
:10240000EBF8FEF7B9FB022100EE100A20460BF0B4
:1024100081F9504920460AF0D3FF684BB3F90030E8
:1024200007EE903AF8EEE77A67EE887A17EE900AB0
:10243000FEF77AF842A3D3E90023FEF7CDF802466F
:102440000B46FDF713FFFEF797FB022100EE100A83
:1024500020460BF05FF93F4920460AF0B1FF584B88
:10246000B3F9000007EE900AF8EEE77A17EE900A4B
:10247000FEF75AF802460B4633A1D1E90001FEF7F8
:10248000D5F9FEF779FB022100EE100A20460BF089
:1024900041F9304920460AF093FF4A4B012193ED60
:1024A000000A20460BF036F92A4920460AF088FF38
:1024B000454B012193ED000A20460BF02BF92549ED
:1024C00020460AF07DFF0BAA02A9404803F082FAD9
:1024D0009DED100A022120460BF01CF91D492046F3
:1024E0000AF06EFF9DED070A022120460BF012F95B
:1024F000184920460AF064FF354B022193ED000A8B
:1025000020460BF007F9134920460AF059FF314BDA
:10251000002193ED000A20460BF0FCF80D492046FF
:102520000AF04EFF124920460AF04AFF20460AF000
:102530004FFF15B0BDEC028B30BD00BFAFF3008084
:102540006666666666660A405C8FC2F5285CB340C4
:10255000D85500205927010813530020A52C010845
:10256000125300201053002016530020C32E0108E0
:10257000F82E010815530020F623010814530020FB
:102580000000803914000020190000209004002071
:1025900008000020C0040020B8040020B00400207F
:1025A000A8040020A00400201C5300201853002081
:1025B0000000C842F65300207853002094530020B6
:1025C000B053002034530020305300206C540020BE
:1025D000545400205054002070B52DED028B044659
:1025E00094B0D349D34D0AF0E7FED34920460AF010
:1025F000E7FED24920460AF0DFFED14920460AF024
:10260000F9FED04920460AF0EBFECF4B9FEDCF7A82
:10261000D3ED007ACE49F8EE677A204687EE878AB6
:102620000AF0CAFECB4B0621204693ED000A0BF0C0
:1026300071F8C94920460AF0BFFEC84B062193ED48
:10264000000A20460BF066F8C54920460AF0B4FEA1
:10265000C44B012193ED000A20460BF05BF8C24900
:1026600020460AF0BDFEC14920460AF0A5FEC04B37
:102670000A22197820460AF033FFBE4920460AF0A4
:102680009BFE0221B0EE480A20460BF048F8BA49FA
:1026900020460AF091FE2B78092B03D8B749204633
:1026A0000AF08AFE2978B64D0A2220460AF018FF61
:1026B000B44920460AF080FE2B78092B03D8AF4995
:1026C00020460AF079FE2978AF4D0A2220460AF00A
:1026D00007FFAC4920460AF06FFE2B78092B03D880
:1026E000A64920460AF068FE0A2229789FEDA78AAB
:1026F00020460AF0F5FEA64920460AF05DFEA54BED
:102700000A22197820460AF0EBFEA34920460AF077
:1027100053FEA24B0A22197820460AF0E1FE9E4998
:1027200020460AF049FE9E4B0A22198820460AF0EC
:10273000B6FE20460AF04CFE9A4920460AF050FEAA
:10274000994BB3F9003007EE903AF8EEE77A67EE6E
:10275000887A17EE900AFDF7E7FE71A3D3E900230C
:10276000FDF73AFFFEF708FA08EE900A8F49204677
:102770000AF022FEB0EE680A022120460AF0CAFFE3
:102780008B4920460AF018FE8A4920460AF014FEBA
:10279000894B0A22198820460AF07FFE874B1B7856
:1027A000002B00F0EF81864920460AF005FE204606
:1027B0000AF00EFE834B844DB3F9003007EE903AD9
:1027C000F8EEE77A0A2667EE887A17EE900AFDF7A8
:1027D000ABFE53A3D3E90023FDF7FEFE02460B46F2
:1027E000FDF744FDFEF7C8F908EE900A7749204648
:1027F0000AF0E2FDB0EE680A022120460AF08AFFE4
:102800006B4920460AF0ECFD714BB3F9000007EE6E
:10281000900AF8EEE77A17EE900AFDF785FE024679
:102820000B4641A1D1E90001FEF700F8FEF7A4F93B
:1028300008EE900A674920460AF0BEFDB0EE680A2D
:10284000022120460AF066FF594920460AF0C8FDD9
:10285000614920460AF0B0FD604B022193ED000A69
:1028600020460AF057FF524920460AF0B9FD5C495C
:1028700020460AF0A1FD5B4B002193ED000A2046A3
:102880000AF048FF584920460AF0AAFD5749204659
:102890000AF092FD564BB3F9003007EE903AF8EE8D
:1028A000E77A67EE887A17EE900AFDF73DFE1CA3E3
:1028B000D3E90023FDF790FE41EC100B02212046E6
:1028C0000AF0F2FF3A4920460AF08AFD20460AF053
:1028D0007FFD484920460AF083FD474920460AF01B
:1028E0006BFD464B0096D3E9002320460AF082FE9A
:1028F000434920460AF060FDD5E90001414A002322
:10290000FEF7E8FA1A4340F04A81D5E900013D4A52
:102910000023FEF7DFFA009676E000BFAFF30080F9
:102920006666666666660A405C8FC2F5285CB340E0
:10293000A72C01081653002014000020C32E010804
:1029400019000020B02C0108185300200000C842D4
:10295000BE2C010828530020C42C01082453002059
:10296000CB2C0108205300208C2E0108D22C01080A
:102970001C530020D92C0108E12C0108F82E010875
:1029800015530020F623010814530020000080395D
:10299000EC2C010813530020A52C01081253002031
:1029A00010530020F42C010878530020FF2C01085C
:1029B000D62B0108092D0108F653002075040020CC
:1029C000112D01089453002008000020602D0108FB
:1029D000B0530020662D01086C2D010854540020CE
:1029E0007B2D0108505400208A2D01088D2D0108EF
:1029F000CC530020962D0108AE2D01089004002034
:102A0000BF2D010840420F0002460B4620460AF047
:102A1000E4FD7B497B4D20460AF0CEFC20460AF0BF
:102A2000D7FC794920460AF0C7FCD5E9000100220D
:102A30000023FEF739F8002800F0B9807349744D7F
:102A400020460AF0CDFC734920460AF0B5FCD5E9D2
:102A5000000100220023FEF727F8002800F0AF80D5
:102A60006A496D4D20460AF0BBFC6C4920460AF0CD
:102A7000A3FCD5E9000100220023FEF715F8002889
:102A800000F0A5806149664D20460AF0A9FC654921
:102A900020460AF091FCD5E9000100220023FEF750
:102AA00003F8002800F09B8058495F4D20460AF04B
:102AB00097FC5E4920460AF07FFCD5E90001002220
:102AC0000023FDF7F1FF002800F091804F492046D8
:102AD0000AF086FC20460AF07BFC554920460AF0A5
:102AE0006BFC544B012193ED000A20460AF012FEC4
:102AF000514920460AF07EFC504920460AF05CFC11
:102B00004F4B012193ED000A20460AF003FE4D4988
:102B100020460AF06FFC4C4920460AF04DFC4B4B16
:102B2000012193ED000A20460AF0F4FD48492046B1
:102B30000AF060FC0BAA02A9464802F04BFF464986
:102B400020460AF039FC9DED100A022120460AF0C9
:102B5000E1FD394920460AF043FC404920460AF08D
:102B60002BFC9DED070A022120460AF0D3FD3C49CB
:102B700020460AF035FC20460AF02AFC14B0BDECD1
:102B8000028B70BD374920460AF016FC36492046B4
:102B90000AF012FC354920460AF02CFC07E60096A4
:102BA000D5E9002320460AF018FD314932E701211A
:102BB00095ED000B20460AF077FE2D493FE70221F4
:102BC00095ED000B20460AF06FFE294949E70321E5
:102BD00095ED000B20460AF067FE254953E70421D6
:102BE00095ED000B20460AF05FFE21495DE70521C7
:102BF00095ED000B20460AF057FE1D4967E700BF20
:102C0000CB2D0108C0040020D02D0108E82D0108BB
:102C1000B8040020ED2D0108B0040020052E0108A5
:102C2000A80400201D2E0108A0040020352E010854
:102C30004D2E010834530020632E0108672E010831
:102C400030530020732E0108782E01082C530020E9
:102C50008B2E01086C5400208E2E0108A22E010834
:102C6000AD2E01083A2D0108562D01083000002034
:102C70001B2C010800000000B94A38B50F23A2F848
:102C80004C30B84BB84C1B78002B00F03D812378BA
:102C9000DB0700F13981B54910460AF08DFBB04AD7
:102CA000B3494FF480731046A2F84C300AF084FB0D
:102CB000B04B1B78002B00F09B81AF4B1B78002B97
:102CC00000F02581AD4DA0A3D3E90023D5E9000193
:102CD000FDF7F4FEA24A4FF48173A2F84C3018B10C
:102CE000A74910460AF06CFB022195ED000B9C48A9
:102CF0000AF0DAFDA3499A4D99480AF061FB4FF4B6
:102D00000073A5F84C30A04B062193ED000A28462D
:102D10000AF000FD4FF44073A5F84C309B4B0621A0
:102D200093ED000A28460AF0F5FC4FF48063A5F8FD
:102D30004C30974B022193ED000A28460AF0EAFC3A
:102D4000944928460AF038FB40F20943A5F84C3074
:102D50002846914D91490AF02FFB297880480A2294
:102D60000AF0BEFB2B78092B03D885497C480AF072
:102D700023FB7B4D8A494FF4A0632846A5F84C30CD
:102D80000AF01AFB874928460AF01AFB7C492846B4
:102D90000AF012FB284684490AF012FB4FF4C06384
:102DA000A5F84C30814D2B78092B03D880496C480D
:102DB0000AF002FB29786A487E4D0A220AF090FB4D
:102DC0007D4967480AF0F8FA2B78092B03D878492F
:102DD00063480AF0F1FA297861480A220AF080FB78
:102DE00075495F480AF0E8FA2378092B03D870493F
:102DF0005B480AF0E1FA21785948594C0A220AF056
:102E00006FFB6E4956480AF0D7FA4FF4E063A4F816
:102E10004C306B4B0A22197820460AF061FB694955
:102E200020460AF0C9FA684B0A22197820460AF0AF
:102E300057FB644920460AF0BFFA644B0A221988FE
:102E400020460AF02AFB40F20A63A4F84C30604B9B
:102E5000012193ED000A20460AF05CFC5D49204602
:102E60000AF0AAFA40F20B23A4F84C305A4BB3F9FB
:102E7000000007EE900AFAEECA7A17EE900AFDF704
:102E800053FB33A3D3E90023FDF7A6FB02460B4611
:102E9000FDF7ECF9FDF770FE022100EE100A204666
:102EA0000AF038FC4D4920460AF086FA40F20B330E
:102EB000A4F84C304A4BB3F9000007EE900AF8EE44
:102EC000E77A17EE900AFDF72FFB02460B4622A188
:102ED000D1E90001FDF7AAFCFDF74EFE022100EE4C
:102EE000100A20460AF016FC3C4920460AF064FA13
:102EF00040F20B73A4F84C303A4B204619880A2252
:102F0000BDE838400AF0C9BA1D491548C5E6364D36
:102F10000DA3D3E90023D5E90001FDF7CFFD104A49
:102F20004FF48173A2F84C3018B1154910460AF0DD
:102F300047FA012195ED000B09480AF0B5FC2B4931
:102F4000D9E600BFAFF3008000000000D01263415B
:102F50006666666666660A405C8FC2F5285CB340AA
:102F6000F85300207504002014530020DD2E0108C2
:102F7000B22E0108CC040020CB040020B8040020AD
:102F8000C32E0108B52E0108285300202453002029
:102F900020530020C52E01081C530020C92E010813
:102FA000CF2E010814000020190000201653002025
:102FB000F82E010815530020F6230108C22E01083F
:102FC00013530020A52C0108125300201053002099
:102FD00034530020652E010894530020D62B01089D
:102FE000B0530020F6530020C0040020B92E010881
:102FF0000C4B0D4DD3E900232A602A680B4B9A42F3
:103000000B4A4FF48173A2F84C3003D209491046A1
:103010000AF0D6F9296806480A220AF054FA064945
:1030200069E600BF0800002010000020809698008C
:10303000F8530020C32E0108BE2E010807B5164A1A
:10304000164B12781B7832B1154A92F900201344BE
:10305000172B15DD183B134A1178642202FB03116C
:10306000114B1B7813F001030ED10193042300933D
:103070000E480123E02203F03DFD03B05DF804FBA0
:10308000002BB8BF1833E6E700230093074804235A
:10309000012203F047FDF0E7360000201653002020
:1030A0003500002015530020145300204854002000
:1030B00030B52D482D4B01780A22B1FBF2F13031A9
:1030C00019700178B1FBF2F002FB10112848303181
:1030D00059700178B1FBF2F13031D9700178B1FB50
:1030E000F2F002FB10112348303119710178B1FB65
:1030F000F2F1303199710178B1FBF2F002FB10115D
:103100001D483031D97103881C499BB2632B20D9EB
:10311000038864249BB2B3FBF4F330330B70038851
:103120009BB2B3FBF4F504FB15339BB2B3FBF2F394
:1031300030334B7003889BB2B3FBF4F004FB1033C5
:103140009BB2B3FBF2F002FB10333033DBB28B7077
:1031500030BD30230B7003889BB2B3FBF2F33033E6
:103160004B700388ECE700BF0453002019000020D7
:1031700003530020025300200053002014000020BD
:1031800008B5C5200AF0F2FC0E4B014618600E4847
:1031900001F040F90D4B05211880C5200AF08EFD85
:1031A0000021C5200AF0F4FD01200AF067FE01218C
:1031B000C5200AF0EDFDBDE808400421C5200AF055
:1031C0007DBD00BFBC550020D0530020CC53002053
:1031D0007A4B37B57A4A1A607A4A5A601F221A81A6
:1031E000794ADA600024794A79481A61C3E90944C6
:1031F000C3E90B445C611C83DC6183F820409C863E
:1032000001F01AFA7348744D02F022FB4021734812
:1032100003F047FA64234A221821714803F01EFB89
:10322000704B6C60A5F84C4045F8083B6E4B009322
:1032300028466E4B6E4A6F4903F0F6FFFF231A468D
:103240001946284603F01CFD6B4B6C491C710A2281
:10325000C3E902441A601C61694B6A481A60C3E9F9
:1032600002441C711C61684BC3E902441A601C7162
:103270001C61664BC3E902441A601C711C6104F0B6
:103280003FF8634B634A1A60634A1C73C3E9012425
:10329000624B634A1A60634A1C73C3E90124624BA0
:1032A000624A1A60624A1C73C3E90124614B624A94
:1032B0001A60624A1C73C3E90124614B614A1A60B7
:1032C000614A1C73C3E90124604B614A1A60614A78
:1032D0001C73C3E90124604B604A1A60604A1C7386
:1032E000C3E901245F4B604A1A60604A1C73C3E95A
:1032F00001245F4B5F4A1A605F4A1C73C3E90124D3
:103300005E4B5F4A1A605F4A1C73C3E901245E4B3F
:103310005E4A1A605E4A1C73C3E901245D4B5E4A33
:103320001A605E4A1C73C3E901245D4B5D4A1A6052
:103330005D4A1C73C3E901245C4B5D4A1A605D4A17
:103340001C73C3E901245C4B5C4A1A605C4A1C7321
:10335000C3E901245B4B5C4A1A605C4A1C73C3E9F5
:1033600001245B4B5B4A1A605B4AC3E901241C736E
:103370005A4B5B4A1A605B4A1C73C3E901245A4BDF
:103380005A4A1A605A4A1C73C3E90124594B5A4AD3
:103390001A605A4A1C73C3E90124594B594A1A60EE
:1033A000594A1C73C3E90124584B594A1A60594AB7
:1033B0001C73C3E9012403B030BD00BF6055002079
:1033C000E4780020985500208D310108C32E0108B3
:1033D000845400206C540020F853002058540020DE
:1033E000485400202C360108756B0008916C0008C9
:1033F000196F0008A1700008D0530020E875002064
:10340000B453002038530020985300207C530020F0
:1034100064040020D62B0108D50F000854040020B6
:10342000FD350108B910000844040020DD2E010814
:103430003911000834040020652E0108F910000835
:1034400024040020D32E0108D91000081404002001
:10345000D73301081911000804040020D62E0108F2
:103460004D100008F4030020D92E01082D1000088B
:10347000E4030020DC2E010899100008D40300208A
:10348000DF2E010879100008C4030020E22E010895
:1034900059150008B4030020E52E0108D1150008D5
:1034A000A4030020E82E0108A914000894030020BA
:1034B000EC2E0108D514000884030020F12E010829
:1034C0000115000874030020F52E01082D150008D1
:1034D00064030020FA2E010845160008540300205A
:1034E000FD2E0108E516000844030020002F010806
:1034F0009D16000834030020032F010891120008D4
:1035000024030020062F0108611300081403002083
:10351000092F01083114000808B5054803F014FF0D
:10352000044803F0C5F8BDE80840034802F095B927
:1035300038530020585400206C54002070B50E46BB
:10354000451EC0F1010463199E4204DCBDE87040D1
:10355000064809F03DBF15F8011F044809F037FD82
:1035600029780248102209F0BBFFECE7E47800203C
:103570007FB504460AF080FC27490546274809F034
:103580001BFFA278264B8DF80A20E27801938DF874
:103590000B2002230022ADF80830104601AC195D63
:1035A0000133014452FA81F2082BC8B2D2B2F6D1EB
:1035B0008DF80C008DF80D20002440F6B8360AF086
:1035C0005BFC401BB04207D91649144809F012FFB2
:1035D00000201EE00024F2E7104809F0D5FC002886
:1035E000EDD00E4809F0B6FE04F110036B44C0B2F2
:1035F00013F80C1C8142EDD101340848E4B21022CA
:1036000009F06EFF0A2CDAD10749044809F0F2FEEE
:10361000012004B070BD00BF0C2F0108E478002029
:10362000B5620501322F0108262F010830B5174970
:1036300017488DB009F0D4FE164B01AA03F12805F6
:1036400018685968144603C40833AB422246F7D1C0
:10365000186820602C2101A8FFF770FF0C4809F0C2
:10366000B7FE0D490A4809F0BBFE01A8FFF780FF2D
:1036700030B10A4906480DB0BDE8304009F0BABE85
:103680000749034809F0B6FEE4E700BF3D2F0108F3
:10369000E478002008220108782F0108A22F0108F1
:1036A000BE2F010810B51C4809F092FE1B491A48AC
:1036B00009F082FE184809F08BFE0AF0DDFB00F5E8
:1036C0006A5418340AF0D8FBA04213480CD309F00E
:1036D0007FFE1349104809F06FFE0F4809F078FE8D
:1036E000104B00221A7010BD09F04EFC002806DDB8
:1036F000094809F02FFEC1B2074809F068FC0648E6
:1037000009F042FC0028DDDD034809F023FEC1B2C8
:10371000014809F05CFCD5E7E4780020E22F0108BD
:10372000FA2F010874040020F8B51C4F3B780646B8
:1037300013B91B4809F04CFE0AF09EFB194C4FF4DC
:103740007A7303FB06060AF097FBB04201D300250B
:1037500021E0134809F018FC00280DDD104809F09D
:10376000F9FDC5B22946204601F03AFA3B781BB96B
:103770000B48294609F02BFC6378002BE3D094F822
:103780007D30002BDFD094F83D50002DDBD00AF0C7
:1037900073FB054B18602846F8BD00BFE0550020BC
:1037A000E478002084540020085300202DE9F047DD
:1037B000A04800F0CEFEA04B1B780BB1FEF762FBD9
:1037C0009E4B1B7823B99E4B1B780BB1FEF7C0FBB9
:1037D0009C4B1B7803F0FF041BB1BDE8F047FFF7DB
:1037E00061BF0120FFF7A0FFDFF81093DFF810831F
:1037F000954F964E0546002800F0868199F80030D6
:10380000934D4BB1214607200AF0C2FA0AF034FB6F
:10381000C5E9000489F800408E4B1B780BB1FFF717
:10382000AFFC98F80030ABB98B4809F0D1FD8A485D
:1038300009F0CEFD8949884809F0BEFD884B8648CD
:1038400019683B680A22C91A09F03DFE8549824879
:1038500009F0C6FD844C204600F0A6FF51EC100B89
:10386000FDF78AF9814B1860204600F0C1FF51EC4A
:10387000100BFDF781F97E4B4FF00009186084F8BA
:103880007D90D4F88400FCF73DFE7A4B0022FCF7D3
:10389000CDFFFDF771F9784BD4F894201860774B81
:1038A00084F88D901A70764BD4F8A4201A6004F135
:1038B0004C0084F89D9001F005F8724B187004F1EB
:1038C0004C0001F009F8704B187004F14C0001F045
:1038D00011F86E4B187004F13C0000F0E9FF6C4BDE
:1038E000187004F13C0000F0D7FF6A4B187004F127
:1038F0003C0000F0C5FF684C684B18802378D3B1BA
:10390000674B1B78BBB1674B1B78A3B9DFF8F4A1F9
:10391000654BBAF800901968644B48461A7800F075
:103920004FFD48450146AAF8000002D002200AF0E7
:1039300033F900232370CD200AF018F95C4B18608E
:1039400019685C4800F066FD5B4B1880C4200AF0E3
:103950000DF95A4B01461860594800F05BFD594B70
:103960001880D1200AF002F9574B014618605748D9
:1039700000F050FD564B1880564803F041FE564B60
:10398000544883ED000A03F081FE544BDFED546A86
:10399000D3ED007A534B4F4870EE277A87EEA67A24
:1039A00083ED007A504B93ED000A37EE000A03F0E6
:1039B00057FF4E4B4E4883ED000A02F0BDFE4D4BC3
:1039C0004B4883ED000A02F0CBFE4B4B83ED000A1F
:1039D000FFF76EFB00233360FDF7E6FF98F8003039
:1039E0001D481BB3FEF710FCFFF746F9FFF726FB57
:1039F0000AF042FAD5E900321343386014D00AF0D5
:103A00003BFAD5E90023801A40F2EA3263EB430324
:103A1000904273F1000307D3012107200AF0B8F99F
:103A200000220023C5E90023BDE8F087FEF7D4FD9E
:103A3000DAE700BF6055002000000020B8550020E4
:103A400001000020740400200C53002024000020FA
:103A5000C8550020C0550020E47800200E30010831
:103A600008530020183001088454002028530020F7
:103A70002453002000005940205300201C530020F4
:103A80001853002016530020155300201453002013
:103A90001353002012530020F45300201053002031
:103AA000CB0400207504002078040020E15500209C
:103AB000F05300207C53002078530020EC5300206A
:103AC0009853002094530020E8530020B453002062
:103AD000B053002038530020345300202C00002025
:103AE0000000C84230530020280000202C53002042
:103AF000585400205454002050540020D055002029
:103B0000E0550020F65300202C4C2D480123336053
:103B100003F05EFB2B49A4F84C50204609F04CFC06
:103B20002949204609F048FC2849204609F044FC70
:103B30004FF480732649A4F84C30204609F03CFC31
:103B40000AF09AF93B680A22C11A4FF47A762046A5
:103B5000B1FBF6F109F0B7FC1E49204609F02CFC38
:103B60002B461D491D48042202F01CFF98F8003026
:103B700073B11B491B4809F033FC1B4B002000218B
:103B8000C3E90001194A0123137089F800304BE79B
:103B9000144809F01DFC1649124809F00DFC0AF002
:103BA0006BF939680A22411A0E48B1FBF6F109F0A7
:103BB0008AFC08490B4809F013FCE3E7F85300209E
:103BC0000054002071220108772201087B2201089D
:103BD0001B3001086F2201083C36010848540020C0
:103BE000F82E0108E4780020D855002002000020BB
:103BF000253001082DE9F0434FF4FA7087B00AF040
:103C00003DF9BB4BBB4DBC4E0024012107201C706D
:103C10000AF054F8012107200AF0BAF801232B70AA
:103C200000F026FC2746204600F016FC16F8013B63
:103C30000134984218BF2F70062CF4D17F21204602
:103C400009F0AAFF4FF4FA6009F08AFF102009F08A
:103C500077FF47F6FF71204609F09EFF01212B20D8
:103C60000AF02CF8012103200AF028F8B02007F010
:103C7000ABFDA249DFF86883A14F064607F0ECFCD4
:103C800002221146304607F0D1FB4FF000099D4B50
:103C9000029302A93046CDF80C90CDF81480049719
:103CA00007F041FD02A8FDF771FD304607F0A3F9CA
:103CB000954822464FF4E13109F0FCFA22464FF4D0
:103CC0001651914809F0F6FA8F4809F081FB8F49A7
:103CD0008D4809F085FB8E498B4809F081FB8A48A5
:103CE00009F076FB2B78002B00F0C58089498648C7
:103CF00009F076FB884B83F800908849824809F0E8
:103D00006FFB8749804809F06BFB8649864800F0C5
:103D100003FC8649844800F0E1FB8549824800F0B5
:103D2000DDFB8449804800F0D9FB83497E4800F0E0
:103D3000D5FB82497C4800F0D1FB81497A4800F0EC
:103D4000CDFB8049784800F0C9FB7F49764800F0F8
:103D5000C5FB7E49744800F0C1FB7D49724800F004
:103D6000BDFB7C49704800F0B9FB7B496E4800F010
:103D7000B5FB7A496C4800F0B1FB79496A4800F01C
:103D8000ADFB7849684800F0A9FB7749664800F028
:103D9000A5FB7649644800F0A1FB7549624800F034
:103DA0009DFB7449604800F099FB73495E4800F040
:103DB00095FB72495C4800F091FB71495A4800F04C
:103DC0008DFB7049504809F00BFB012205216E481C
:103DD00002F05BFD6C4802F019FE002304226B49DF
:103DE000694802F0DFFD6A49474809F0F9FA40F6F0
:103DF000B8300AF043F86749434809F0FBFA6649CE
:103E0000414809F0F7FA65493F4809F0D9FA644991
:103E10003D4809F0D5FA3C4809F033FA64200AF02D
:103E20002DF8394809F01BFA06224FF4164136489E
:103E300009F040FA40F6B8300AF020F85949324803
:103E400009F0D8FAFFF7F2FB57492F4809F0C8FAF2
:103E500056492D4809F0C4FA5549564838230022DE
:103E600001F01AFD60B95449274809F0B9FA0A204F
:103E70000AF004F8FBE75149234809F0B1FA3CE79E
:103E80004F49214809F0ACFA4E4803F073F94D4808
:103E900003F09EF94B48002103F075F94A4949485F
:103EA00002F02CFF474803F093F9484A17490023D2
:103EB0001046A2F84C3009F07FFA4549434809F012
:103EC0007BFA1349414809F077FA42490E4809F054
:103ED00087FA3749404802F07CFC002840F0828095
:103EE0003E49094809F07CFA0A2009F0C7FFFBE7C0
:103EF000E1550020B85500203A0000200040014064
:103F000069170008911B0008E4780020712201085D
:103F10007B2201083A300108010000209830010896
:103F2000B1300108910F00086055002064040020A2
:103F30005404002044040020340400202404002001
:103F400014040020C4030020B40300200404002053
:103F5000F4030020E4030020D4030020A403002085
:103F600094030020840300207403002064030020D5
:103F700054030020440300203403002024030020C5
:103F800014030020CE3001084854002040360108B8
:103F9000E930010815310108313101084F310108BC
:103FA0006D3101088F310108AF310108CC310108B2
:103FB000E87500206C5400200532010875300108B6
:103FC00038320108005400201D370108F853002042
:103FD0007722010850320108585400206832010845
:103FE000891700086E496F4809F0FAF96E4802F027
:103FF00009FC0C2009F086FD7F21022009F0CCFD90
:104000004FF4FA6009F0ACFD102009F099FD2B780F
:1040100023B3062000F020FA0446072000F01CFA23
:1040200000EB042189B2614B0220198009F0B4FD34
:104030005F495C4809F0D4F95E495A4809F0D0F963
:104040005D485822762103F0A4FA50B95B495548DF
:1040500009F0C6F90A2009F011FFFBE748F6013123
:10406000E1E757494F4809F0BBF904230222CDE9A3
:10407000003351480523032103F0A0F90221132046
:1040800009F01CFE01211320FDF770FEB02007F09F
:104090009BFB002406464FF0804107F0DDFA4FF00D
:1040A00080490822452303213046009407F078F820
:1040B0004FF0FF33C9F82C3002A9424B029330462F
:1040C000CDE90478039407F02EFB02A8FDF75EFB10
:1040D00002AA03213C4B02933046CDE904780394B5
:1040E00007F001FB02A8FDF751FBD9F8083043F4B3
:1040F0008043C9F80830304606F07DFF334800F0B1
:104100007BF9C52009F032FD314B014618602F487C
:1041100000F080F92F4B18802F4800F06DF9D12066
:1041200009F024FD2D4B014618602B4800F072F970
:104130002B4B18802B4800F05FF9C42009F016FDC6
:10414000294B01461860274800F064F9274B188076
:10415000274800F051F9CD2009F008FD254B1860E3
:104160001968234800F056F9234B18802B78A3B127
:1041700022490C4809F034F909F07EFE204B186002
:10418000084809F025F91F49064809F029F90548AA
:1041900007B0BDE8F04309F01BB91B49E9E700BFD0
:1041A00093320108E478002058540020F653002090
:1041B000AC320108C632010838530020F73201083A
:1041C00022330108710F00087D0F0008D053002032
:1041D000BC550020CC530020B4530020E8530020ED
:1041E000B053002098530020EC530020945300203B
:1041F0007C530020F0530020785300203B3301080B
:104200000C5300207F3301086B33010800000000CD
:1042100038B540F2AD13B1FBF3F202FB13110446C3
:10422000002960D1504B1B78002B2FD04F4D3EA35F
:10423000D3E90023D5E90001FCF754FC30B3D5E9FC
:1042400000013BA3D3E90023FCF742FCF0B1D5E920
:10425000000139A3D3E90023FCF744FC002834D142
:10426000D5E9000136A3D3E90023FCF731FC00288F
:1042700039D0D5E9000134A3D3E90023FCF728FCA9
:10428000002836D005343A49A4B229E0394D28A394
:10429000D3E90023D5E90001FCF724FC00282CD148
:1042A000D5E9000120A3D3E90023FCF711FC002885
:1042B00037D0D5E9000126A3D3E90023FCF708FC99
:1042C00058B364342C49A4B20AE0D5E9000122A312
:1042D000D3E90023FCF706FC38B1053C2749A4B21A
:1042E00027480AF0A2FF204638BD013C2549A4B268
:1042F000F6E701342449A4B2F2E7D5E9000118A396
:10430000D3E90023FCF7EEFB18B1643C1F49A4B2CB
:10431000E6E70A3C1E49A4B2E2E70A341D49A4B20A
:10432000DEE71D49DCE700BF7B14AEFFCF1263411F
:1043300085EB5100D012634127310800D012634150
:10434000D9CEF7FFCF1263413D0AD7FFCF126341A9
:10435000CDCCCCFCCF126341C3F52800D012634111
:1043600033333303D0126341CA040020B004002069
:1043700098330108B8040020AC3301088E330108DB
:1043800030000020933301089D330108A233010857
:10439000A7330108B1330108B6330108074B59436D
:1043A000B1F1333F10B5044606D802214FF0FF307B
:1043B00009F0C8FA0444A4B2204610BDCDCCCCCC40
:1043C000012A10B403460C4605D0022A10D05DF82D
:1043D000044BFFF71DBF4FF47A72B1FBF2F102FB01
:1043E00011440CB901339BB218465DF8044B704779
:1043F0005DF8044BFFF7D2BF10B5044600686FF0BC
:104400006042904234BF80004FF0FF3007F0DEF989
:10441000606110BDD0E9022370B5D0E9045406688C
:10442000B242A6BF54F825209B1A01320B44B8BFF4
:104430008260C36044F825100269016801328A4233
:10444000A8BF00220261806800EBD07203EB620318
:1044500093FBF0F070BD0000014B185C704700BF8B
:10446000E8550020014B1954704700BFE855002063
:1044700008B5034903484FF400520AF0DEFE08BDB8
:1044800000E00F08E855002030B587B00023022275
:10449000CDE90033059201230B22CDE903230293DA
:1044A00003F0ACFE694601A803F08EFF68B9094D20
:1044B000094C55F8042B00232146022003F0E2FEAC
:1044C00018B90434B4F1016FF3D103F0A9FE07B0B9
:1044D00030BD00BFE855002000E00F080B7B10B591
:1044E00073B900F1240200F12803343000248C60F9
:1044F00014685CB91960116003780133037010BD52
:1045000000F12C0200F130033530EFE71A689160BA
:104510001960F1E700687047416170474268002305
:104520001370038380F82030704710B50446C06ACA
:1045300060B16168026809781278914207D14368D6
:10454000204698472046FFF7E9FF012010BD80680C
:10455000EEE72DE9F84303680446002B64D000F130
:104560001C074FF00008206803681B699847002863
:1045700027DD206803685B699847051EF3DDB4F901
:104580001830B4F908209A4210DD6268591C218362
:10459000D554B4F91830012B0ED0E06894F92030CE
:1045A000C25CAA420FD084F82080DCE72046FFF7E7
:1045B000B5FF0220BDE8F8832046FFF7B6FF0028CC
:1045C000EBD00020F6E701335BB284F82030C55C05
:1045D000002DC8D1FBF7E6FDB4F9183062681B1A4C
:1045E000D5543A46216960680AF098FD0546A8B19D
:1045F000666A2EB963698BB12946204698470DE05B
:10460000D6F800904846FBF7CDFD4946421C2846A7
:104610000AF037FD30B97368204698472046FFF707
:104620007DFFA0E7B668E4E70120C3E7016900F178
:104630001C0200200AF072BD1749416300224FF4AA
:104640000071C0E90022C0E90222C0E90422C0E9E9
:104650000622C0E90822C0E90A22C0E90F22C0E907
:104660001322C0E92F120263C2654266C266426726
:10467000C267C0F88420C0F88C20C0F89420C0F82D
:104680009C20C0F8A420C0F8AC20C0E93122C0E9C9
:104690003322C0E93522704730004E00A1F14103BA
:1046A000052B02D8A1F137007047A1F16103052B5A
:1046B00094BFA1F15700A1F13000704738B50578DB
:1046C00004462D2D08BF0134204609F0FCFB64236D
:1046D0005843224614F8013BA3F130010929F8D9C7
:1046E0002E2B0BD15378303B092B07D80A2113FB13
:1046F00001009378303B092B98BFC0182D2D08BFBF
:10470000404238BD38B50D46044609F0DCFB642351
:104710001349B0FBF3F203FB12034B432A802046FC
:104720000278A2F13004092C014600F10100F7D90A
:104730002E2A0BD10A480A2403E0B0FBF4F000FB58
:10474000023311F8012F303A092AF6D903EB83031B
:1047500001330322B3FBF2F36B6000232B7238BDED
:1047600080969800C36910B54360036A836090F82F
:1047700024300373836A0361C36A436190F8303065
:10478000037690F8353080F8343090F8373080F880
:104790003630044609F070FB40F20113A063238019
:1047A00010BD0000000000000023D0B50446437097
:1047B0008068FBF797FE0CA3D3E90023FCF736F8DB
:1047C0000646A0880F46FBF79DFE0B46024639467B
:1047D0003046FBF74BFD237B13B101F10043194633
:1047E00041EC100BD0BD00BF0000000065CDCD41F5
:1047F0000023D0B5044643704069FBF773FE0CA359
:10480000D3E90023FCF712F80646208A0F46FBF78F
:1048100079FE0B46024639463046FBF727FD237EDC
:1048200013B101F10043194641EC100BD0BD00BF9C
:104830000000000065CDCD4110B58368436004469B
:1048400009F01AFB40F20113E060238010BD10B59F
:1048500083684360044609F00FFB40F20113E060F7
:10486000238010BD10B504460846FFF727FFA0605F
:1048700010BD10B50446084609F025FBA06010BD28
:104880000023437040686423B0FBF3F203FB120083
:1048900000F5FA6080B270470023437064234068DB
:1048A000B0FBF3F0B0FBF3F203FB1200C0B27047B1
:1048B00000234370406842F21073B0FBF3F0C0B2C3
:1048C00070470000002343704068024BB0FBF3F0D8
:1048D000C0B2704740420F0000234370406842F26C
:1048E0001073B0FBF3F06423B0FBF3F203FB120090
:1048F000C0B270470023437064234068B0FBF3F0FC
:10490000B0FBF3F203FB1200C0B2704710B5C368EE
:104910008360044609F0B0FA40F20113606023801E
:1049200010BD10B504460846FFF7C8FEE06010BD94
:1049300010B5C3688360044609F09EFA40F2011383
:104940006060238010BD10B50446084609F0BBFA2C
:10495000E06010BD10B50146044610300AF065FC59
:1049600009F08AFA40F201132062A38410BD0F22DD
:104970000AF099BB70B590F8AD600446002E65D082
:1049800090F8AE10FFF78AFE94F8AF10024620466A
:10499000FFF784FE94F8AC3000EB0210C0B2834203
:1049A0004DD1D4F8D8300133C4F8D83094F8C030A1
:1049B00023B1D4F8D0300133C4F8D03094F8BD30EE
:1049C0001BB3012B15D104F13C00FFF735FF04F1B7
:1049D0004C00FFF73CFF94F8C03053B12046FFF77E
:1049E000C1FE04F15C00FFF791FF04F16C00FFF7DA
:1049F0008DFFD4F8C85035B1D4F8C830A86A996A88
:104A0000FBF7C6FBB0B1304670BD04F14C00FFF7B8
:104A10001EFF94F8C03033B12046FFF7A3FE04F127
:104A20007C00FFF773FF04F18C00FFF781FF04F1B6
:104A30009C00DCE72846FFF78DFF2D6BDBE7D4F801
:104A4000D4300133C4F8D4300026DCE790F8BE201F
:104A50009ABB90F8AE30472B29D190F8AF105D4843
:104A60000AF002FB18B304F1B0055B492846FBF7D6
:104A70008FFBF0B159492846FBF78AFB003818BF75
:104A800001204000D4F8C45084F8BD0004F1AE0603
:104A9000C4F8C850002DD7D0A86A3146FBF778FB80
:104AA000002808DBD0D00023C4F8C830CCE70220AF
:104AB000E8E70120E6E72D6BEAE790F8BD10022950
:104AC00024D090F8AE300BB342EA4112013A2B2ABF
:104AD0001CD8DFE802F0163C434A4D646D73771B27
:104AE0001B1B1B1B1B1B1B1B1B1B1B1B1B1B1B1B16
:104AF0001B1B1B1B1B1B16353C434A4D545A5E1B8C
:104B00001B7B00F1AE014C30FFF7ACFED4F8C8506F
:104B100004F1AE06002D97D0D4F8C830A86A996A7F
:104B2000FBF736FB00288FD1EA6A94F8BE309A4230
:104B30008ADC03D131462846FFF719FF2D6BE9E7E0
:104B4000A3F141004342434184F8C030DEE700F165
:104B50001C0104F1AE00FFF7D5FDD7E7A3F1530127
:104B60004B424B4180F82430D0E700F12801F0E7B8
:104B7000A3F157025342534180F83030C6E700F1A9
:104B8000AE015C30FFF7CDFEC0E700F1AE016C3046
:104B9000F8E700F1AE013C30FFF76BFEB6E7302BD3
:104BA00094BF0022012280F8C02080F83530ADE7A4
:104BB00000F1AE018C30FFF7C6FEA7E700F1AE01B1
:104BC0009C30DFE700F1AE017C30DBE780F8373066
:104BD0009CE700BFBB330108C1330108C53301089E
:104BE00038B5D0F8CC30242903F1010304460D4632
:104BF000C0F8CC302AD090F8BF301CD80A2901D098
:104C00000D292FD10E2B4FF0000005D8234483F837
:104C1000AE002046FFF7AEFE94F8BE30013384F8B4
:104C2000BE30002384F8BF30A5F12A035D425D4108
:104C300084F8AD5038BD2A29E4D02C2912D190F83F
:104C4000AC2082F02C0280F8AC20DBE700230222AB
:104C5000A0F8AC3080F8BD20A0F8BE3080F8C0309D
:104C60000020E7E70D2B9FBF5A1C1B1984F8BF20BB
:104C700083F8AE5094F8AD30002BF1D194F8AC30FD
:104C80005D4084F8AC50EBE7028BC08A101A704785
:104C9000C28A018B914288BF0169034683BF885C49
:104CA0000132DA824FF0FF307047028BC38A9A429A
:104CB00086BF0269D05C4FF0FF307047806DD0F83E
:104CC000DC302BB100234384D0F8E030D4301847D7
:104CD0007047000070B54FF47A730E460021C0E9AA
:104CE0000113034615462B4A43F8C42B0446C0F86B
:104CF000C4109C22C3E90111C0E93411C0E9361186
:104D0000C0F8E01028300AF0A7F9F3B24A2B19D8FE
:104D1000214A52F8233006F4E0661E43EBB24A2BD8
:104D2000C4F8846022D81C4A52F8233005F4E065A8
:104D30001D430023C4F88850E36123842361A382C8
:104D4000204670BD06F0C002C02A0CD1CF2B0AD875
:104D5000124B06F03F0206F4E06653F822200E4B99
:104D600053F82230D9E74FF0FF36D7E705F0C002FD
:104D7000C02A0CD1CF2B0AD8084B05F03F0205F40E
:104D8000E06553F82220044B53F82230D0E74FF06F
:104D9000FF35CEE74C360108C843010888430108B7
:104DA00038B50446283000F01FFBE06918B109F05F
:104DB00097F80023E36120690025258410B109F0EC
:104DC0008FF82561A58238BD38B50546074B45F8F3
:104DD000D43B0446FFF7E4FF2846FCF7D7FC04F178
:104DE000C400FCF7D3FC204638BD00BF4C36010898
:104DF00038B5044600F12805284600F045FB94F834
:104E0000BE304BB92846054900F03EFC284604490F
:104E1000BDE8384000F031BC38BD00BFBD4C0008D3
:104E2000694E00080123994080F8243000238176E0
:104E3000438470470123994080F824300023817611
:104E40004384704738B5838A8B4205460C4609D2A5
:104E5000202938BF20240069214609F035F910B116
:104E60002861AC8238BDFEE773B5846D866ED4F8D8
:104E7000CC300546E3B1E28A238B9A4218D33146FF
:104E80002046FFF7DFFF2069324605F174010AF082
:104E9000D4F90023E382D4F8CC30268301960BB9F1
:104EA0000DF0A0F9D4F8D03001A904F1C40098475E
:104EB00002B070BDB1F5806F70B505460C4610D8D4
:104EC000038C99420AD920290E4638BF2026C06992
:104ED000314609F0F9F818B1E8612E84204670BD1A
:104EE000FEE70024FAE713B590F824308DF8071098
:104EF00004467BB1418C0131FFF7DCFF40B1638C8C
:104F0000E2699DF80710D154638C0133638401205A
:104F100002B010BD01220DF10701283000F0DCFACB
:104F2000B0FA80F04009F3E770B590F824300446F9
:104F30000E46154693B1418C1144FFF7BBFF10B9E3
:104F40000025284670BD638CE0692A461844314626
:104F50000AF073F9638C2B446384F2E792B2283031
:104F600000F0BAFA0028EBD1EBE70346006918B16C
:104F70009A8A00210AF070B870470346C06918B1D8
:104F80001A8C00210AF068B8704738B50446D1B9C8
:104F90004FF42A03A36594F8BE30012B16D1638C1D
:104FA000E269A17E04F1280000F016FB042828BF66
:104FB0000420C5B22046FFF7E0FF0023638484F895
:104FC0002430284638BD4FF02A43E3E70425F8E7AC
:104FD0002DE9F04790F8BEA09DF820609DF8249040
:104FE000BAF1010F04460F461546984639D11146CD
:104FF0007F00FFF727FFFFB27EB10023032E84F866
:1050000024A0A776638428BF0326013EF6B2FF2EB4
:105010001BD100212046FFF7B8FFB9F1000F1DD1C9
:105020004FF42A03A36522692B46394604F1280070
:1050300000F06CFA002398422E461CBF1D462E46F7
:10504000E38226832846BDE8F0872368F10028FA2A
:1050500001F11B68C9B220469847D6E74FF02A43B2
:10506000E0E70020EFE707B5019300230093FFF787
:10507000AFFF03B05DF804FB0121FFF786BF38B531
:1050800004460025C5820583FFF76FFF658420462F
:10509000FFF773FF38BD00002DE9F0410446D0F85A
:1050A000840008F06DFC002108F008FED4F884307C
:1050B000C3F30312082A44D8264D274F55F822205F
:1050C00003F00F03126957F8233093433FD0D4F80D
:1050D000880008F055FC012108F0F0FDD4F88800A4
:1050E0001E4B1F4C1B68B3FBF4F3C0F303110A24DF
:1050F000082900F00F0204FB03F325D857F82270AB
:10510000184A14264FEA074E55F821C0CCF818E08B
:10511000D2F804805468A4EB0804A342FADCCCF86B
:105120001870D2F804C05468A4EB0C04A342FADC53
:10513000013EE9D108F024FC3146BDE8F04108F019
:10514000BDBD00231B69FFDE00239B61FBE7BDE8BB
:10515000F08100BF6C0000206C3A01089C00002028
:1051600040420F00001000E02DE9F0410446002508
:10517000C58205831F460E469046FFF7F6FE6584FE
:10518000A5762046FFF7F9FED4F8DC30C4F880405D
:1051900033B104F1D401032208469847C4E93755D6
:1051A0000023012E84F824304FEA460384F825308A
:1051B0000CBF0123002384F8BE3084F8BF8084F83C
:1051C000C07002D12046FFF767FF04F1280594F86C
:1051D00025200949284600F029F894F8BE304BB93B
:1051E0002846064900F050FA28460549BDE8F04136
:1051F00000F043BABDE8F081A0860100BD4C000874
:10520000694E00080A4600230121FFF7ADBF0000E8
:10521000024803220221FFF75DBD00BFE8750020B0
:105220000148FFF7D1BD00BFE8750020F0B50D467D
:1052300085B016460446002800F0C0806049C06D65
:1052400006F0C0FF5F490746206E06F0BBFF01462F
:10525000002F00F0B380002800F0B080384606F040
:10526000D8FF2060002800F0A980574B984204F135
:1052700004074FF0000361D10193544B1A6C42F4C0
:1052800000121A641A6C02F400120192019A1A6A4E
:1052900042F400121A621A6A22F400121A6242F2EE
:1052A0001F03A4F864304A4B1F604649206E06F085
:1052B00071FF4349E06D06F06DFF464B21689D424A
:1052C00076D9454B9D4203D9444B9D4288BF00236C
:1052D0004FF480420025C4E901134FF48043C4E930
:1052E000053594F8973094F96400E5615B1B18BFAD
:1052F00001239B01236294F8983084F841505B1B92
:1053000018BF0123DB0163620221C4E903262A4698
:1053100002F084FD94F9640002F0B2FD94F9650096
:105320002A46022102F07AFD94F9650002F0A8FDF8
:10533000384603F0F5F800283CD0FEE7284A9042B2
:1053400019D10293214B1A6C42F480021A641A6C30
:1053500002F480020292029A1A6A42F480021A62ED
:105360001A6A22F480021A6242F22123A4F86430FD
:10537000174B5F6099E71B4A904296D10393134BFA
:105380001A6C42F400021A641A6C02F400020392CE
:10539000039A1A6A42F400021A621A6A22F400029C
:1053A0001A6244F64813A4F86430094B9F607CE706
:1053B00000228FE70223A06684F8953005B0F0BD87
:1053C0003C410108004101080054004000380240FF
:1053D000CC760020A0860100801A060040420F0013
:1053E00000580040005C004010B5044690F964008D
:1053F00002F054FD94F9650002F050FD201D03F009
:1054000038F9206E032106F037FEE06D032106F027
:1054100033FE2368184A93420DD1184B1A6A42F49E
:1054200000121A621A6A22F400121A621A6C22F42A
:1054300000121A6410BD124A93420CD10F4B1A6A23
:1054400042F480021A621A6A22F480021A621A6C0A
:1054500022F48002EDE70B4A9342EBD1074B1A6A24
:1054600042F400021A621A6A22F400021A621A6CEA
:1054700022F40002DDE700BF005400400038024083
:1054800000580040005C0040104B994210B50446A3
:1054900006D90F4B994203D90E4B994288BF00237E
:1054A0006068026822F001020260A360074B994223
:1054B00094BF002101218903E160201D03F030F831
:1054C0006268136843F00103136010BDA0860100F9
:1054D000801A060040420F00202A30B514D800235D
:1054E0009CB2A24207D890F894301344DBB280F803
:1054F0009430002030BD90F89440CD5C1C440444AE
:10550000013384F87450EBE70120F3E72DE9F3470A
:1055100005460F469046994602F026FA0024D5F833
:1055200030A006460435CDF800A04B464246394629
:10553000284603F0CBF9022806D102F015FA841BA5
:10554000642CF0D906201FE008BB02F00DFA0646D5
:10555000284604F025F9202809D0632C07D802F04A
:1055600003FA841B284604F01EF90028F0D02846D0
:1055700004F019F9632C0CD882060AD443070AD424
:10558000003818BF0120800002B0BDE8F087042079
:10559000FAE70520F8E70320F6E710B56423044690
:1055A000043003F07FF8022810D0032806D090B111
:1055B00094F84130202B18BF042004E094F84130C7
:1055C000202B18BF052008BF022004E094F84130CA
:1055D000202B18BF062010BD2DE9F34704460E46C8
:1055E00091461F4602F0C0F980463FB9012231467C
:1055F000204602B0BDE8F047FFF7CFBFD4F830A097
:1056000000250434CDF800A03B464A4631462046EA
:1056100003F0F4F8022807D102F0A6F9A0EB080580
:10562000642DEFD906201FE008BB02F09DF9064665
:10563000204604F0B5F8202809D0632D07D802F0E1
:1056400093F9851B204604F0AEF80028F0D02046E0
:1056500004F0A9F8632D0CD882060AD443070AD4B3
:10566000003818BF0120800002B0BDE8F087042098
:10567000FAE70520F8E70320F6E720B119B1C16683
:10568000043003F01FBA704720B119B1016704302C
:1056900003F018BA704770B590F89130012B0446AA
:1056A0000D46A0F1040609D1436E3BB1836E30462E
:1056B0009847022384F89130002363668DB9E36E26
:1056C00084F891501BB184F890503046984794F874
:1056D000902004F1700120462023BDE8704003F0C3
:1056E0007BB900230122636684F89120616E7431D6
:1056F000314420460423BDE8704003F0A8B910B53A
:1057000090F89130012B044604D1436E13B1836E9F
:1057100004389847022384F89130002363662046BA
:10572000BDE8104003F0CEB9436E1F2BDEBF436EC1
:105730000133436690F89130012BDAB205D1416E06
:1057400070310423014403F082B97047002380F8CC
:105750009030704790F892300BB903F0B3B97047AE
:10576000014B186803F02EBBCC760020014B186863
:1057700003F07ABFCC760020014B586803F022BBBF
:10578000CC760020014B586803F06EBFCC76002029
:10579000014B986803F016BBCC760020014B98684B
:1057A00003F062BFCC76002070477047704710B599
:1057B0000C21044606F00CF8204610BD10B50C2153
:1057C000044606F005F8204610BD000038B50C462A
:1057D00005461D22002104F10B0009F03DFC08499B
:1057E0000B22204609F05FFC0123E3606B68236114
:1057F0000C236361034BA3614FF08043236238BDE8
:10580000C93301080000C84238B50C4605461D22C0
:10581000002104F10B0009F01FFC09490B2220466E
:1058200009F041FC0123E3606B6823610D23636190
:10583000044BE361044BA361044B236238BD00BFFA
:10584000D1330108000020C20000AA429A99993E73
:105850000022C0E903224261704710B50446006986
:1058600010B103685B689847606910B103685B68B2
:105870009847204610BD07B50123C0681A460DF1B0
:10588000070100F097FA20B19DF8070003B05DF81A
:1058900004FBFF20FAE70000F0B5044685B01420B1
:1058A0000F461E4608F0EAFAE06810B1102105F034
:1058B0008FFF102005F088FF314605463A4600F07C
:1058C00004FAE5600121284600F01BFA18B900250A
:1058D000284605B0F0BDBA238DF80C300023CDE981
:1058E00000330123E0681A4603A900F01AFA0546BE
:1058F0000028ECD0142008F0C1FA2046FFF7BBFFC7
:10590000010637D440F6E103ADF80C300023CDE9B1
:1059100000338DF80E30E0680123032203A900F064
:1059200000FA2046FFF7A7FF020625D42046FFF71E
:10593000A2FF0307CBD5606910B103685B68984785
:10594000206910B103685B6898470C2005F03CFFA4
:105950000B4B03604FF48153C0E9013460610C20AC
:1059600005F032FF074B036041F22103C0E9013427
:105970002061ADE70A20BEE70A2008F07FFAD0E7F1
:10598000783601089436010870B50C46054616466F
:1059900000212022201D09F05FFB242323606B8956
:1059A00063600D23A3602B686361266170BD70B5D1
:1059B0000C460546164600212022201D09F04CFB0E
:1059C000242323602B8963600D23A3606B686361CC
:1059D000266170BD2DE9F04186B00E460446904622
:1059E00008F04AFA324B03A91A889B788B7000237F
:1059F000CDE900330746ADF80C20E068012303220F
:105A000000F08FF938B90025284606B0BDE8F081CE
:105A10000A2008F033FA2046FFF72DFF0306F7D4DB
:105A2000E0680123062204A900F0C4F90546002815
:105A3000E9D0BDF811209DF813109FED1E7ADFED1F
:105A40001E6A52BA92B20B0943EA021307EE903A69
:105A5000F8EEE77A9DF814209DF8153067EE877A06
:105A600001F00F0167EEA67A42EA012243EA02231F
:105A7000C4ED017A07EE903A9FED107AF8EEE77ADE
:105A800067EE877A9FED0E7AA7EEA67A84ED007A0C
:105A9000B8F1000F04D03A4641462046FFF774FFA4
:105AA000002EB1D03A4631462046FFF780FFABE7E3
:105AB000D93301080000C842000080350000484387
:105AC000000048C208B500228068FFF783FF01206C
:105AD00008BD08B50A4680680021FFF77BFF01205A
